{
  "transactions": [
    {
      "hash": "0x54c6c3ec145f0ce3cf1cadf8397953ebf06b8ece3654dcf881351d0e41305658",
      "transactionType": "CALL",
      "contractName": null,
      "contractAddress": "0xf4d6a4610095f29c7303305a7d2a031af0cef835",
      "function": "claim(uint256)",
      "arguments": [
        "0"
      ],
      "transaction": {
        "from": "0xed1ccd8134e69bfd8275e284cb4cfc0a321cd525",
        "to": "0xf4d6a4610095f29c7303305a7d2a031af0cef835",
        "gas": "0x16feb",
        "value": "0x0",
        "input": "0x379607f50000000000000000000000000000000000000000000000000000000000000000",
        "nonce": "0x13",
        "chainId": "0x13882"
      },
      "additionalContracts": [],
      "isFixedGasLimit": false
    }
  ],
  "receipts": [
    {
      "status": "0x1",
      "cumulativeGasUsed": "0xfb92",
      "logs": [
        {
          "address": "0xf339f6d7860d7741bad1b759a1fd0a261cad572e",
          "topics": [
            "0xddf252ad1be2c89b69c2b068fc378daa952ba7f163c4a11628f55a4df523b3ef",
            "0x000000000000000000000000f4d6a4610095f29c7303305a7d2a031af0cef835",
            "0x000000000000000000000000ed1ccd8134e69bfd8275e284cb4cfc0a321cd525",
            "0x0000000000000000000000000000000000000000000000000000000000000000"
          ],
          "data": "0x",
          "blockHash": "0x2c288e43aa8c929198f29df0c2a3e95dba97808a6b9d6e1946d6fbaaff82c85d",
          "blockNumber": "0x13dc27c",
          "transactionHash": "0x54c6c3ec145f0ce3cf1cadf8397953ebf06b8ece3654dcf881351d0e41305658",
          "transactionIndex": "0x0",
          "logIndex": "0x0",
          "removed": false
        },
        {
          "address": "0x0000000000000000000000000000000000001010",
          "topics": [
            "0x4dfe1bbbcf077ddc3e01291eea2d5c70c2b422b415d95645b9adcfd678cb1d63",
            "0x0000000000000000000000000000000000000000000000000000000000001010",
            "0x000000000000000000000000ed1ccd8134e69bfd8275e284cb4cfc0a321cd525",
            "0x0000000000000000000000006ab3d36c46ecfb9b9c0bd51cb1c3da5a2c81cea6"
          ],
          "data": "0x0000000000000000000000000000000000000000000000000016e153e93992720000000000000000000000000000000000000000000000000c18af7ce1973e75000000000000000000000000000000000000000000000760eef6a28d9fab42b90000000000000000000000000000000000000000000000000c01ce28f85dac03000000000000000000000000000000000000000000000760ef0d83e188e4d52b",
          "blockHash": "0x2c288e43aa8c929198f29df0c2a3e95dba97808a6b9d6e1946d6fbaaff82c85d",
          "blockNumber": "0x13dc27c",
          "transactionHash": "0x54c6c3ec145f0ce3cf1cadf8397953ebf06b8ece3654dcf881351d0e41305658",
          "transactionIndex": "0x0",
          "logIndex": "0x1",
          "removed": false
        }
      ],
      "logsBloom": "0x00000000080000000000000000000000000000000000000000000000000000000000000000000000000000000000800000408000000000000000000004000000000000080000000000000008000000800000000000000000000100000000000000000000020000000000000000000800000000000000000080000010000000000000000000000000000000000000004000000000000000000000000020000000200000000000000000000000000000000000000000000000000000000000004000000002000000000001000000000000002000014000000000100000000020000000000020000000000020000000000000000000000000000000000000100000",
      "type": "0x2",
      "transactionHash": "0x54c6c3ec145f0ce3cf1cadf8397953ebf06b8ece3654dcf881351d0e41305658",
      "transactionIndex": "0x0",
      "blockHash": "0x2c288e43aa8c929198f29df0c2a3e95dba97808a6b9d6e1946d6fbaaff82c85d",
      "blockNumber": "0x13dc27c",
      "gasUsed": "0xfb92",
      "effectiveGasPrice": "0x174876e800",
      "from": "0xed1ccd8134e69bfd8275e284cb4cfc0a321cd525",
      "to": "0xf4d6a4610095f29c7303305a7d2a031af0cef835",
      "contractAddress": null
    }
  ],
  "libraries": [],
  "pending": [],
  "returns": {},
  "timestamp": 1745444398,
  "chain": 80002,
  "commit": null
}