{
  "transactions": [
    {
      "hash": "0xdbc13a15cc0a9cec75e3c08dcfacba9c8af7165ca8225203d20a5bb2ddc69455",
      "transactionType": "CALL",
      "contractName": null,
      "contractAddress": "0xf4d6a4610095f29c7303305a7d2a031af0cef835",
      "function": "mintAndAssign(string)",
      "arguments": [
        "ipfs://bafybeifjox2ei7u5wn36b3vynjoj5fbjlht5xchdakuolac6kv2bktj4ye/0.json"
      ],
      "transaction": {
        "from": "0xed1ccd8134e69bfd8275e284cb4cfc0a321cd525",
        "to": "0xf4d6a4610095f29c7303305a7d2a031af0cef835",
        "gas": "0x40dc0",
        "value": "0x0",
        "input": "0xf803cdd900000000000000000000000000000000000000000000000000000000000000200000000000000000000000000000000000000000000000000000000000000049697066733a2f2f62616679626569666a6f78326569377535776e3336623376796e6a6f6a3566626a6c68743578636864616b756f6c6163366b7632626b746a3479652f302e6a736f6e0000000000000000000000000000000000000000000000",
        "nonce": "0x12",
        "chainId": "0x13882"
      },
      "additionalContracts": [],
      "isFixedGasLimit": false
    }
  ],
  "receipts": [
    {
      "status": "0x1",
      "cumulativeGasUsed": "0x2ef50",
      "logs": [
        {
          "address": "0xf339f6d7860d7741bad1b759a1fd0a261cad572e",
          "topics": [
            "0xddf252ad1be2c89b69c2b068fc378daa952ba7f163c4a11628f55a4df523b3ef",
            "0x0000000000000000000000000000000000000000000000000000000000000000",
            "0x000000000000000000000000f4d6a4610095f29c7303305a7d2a031af0cef835",
            "0x0000000000000000000000000000000000000000000000000000000000000000"
          ],
          "data": "0x",
          "blockHash": "0xe941775e6dde66a5b1fa04f87e30270b6baf782b48c4402f6db044a4c97b8745",
          "blockNumber": "0x13dc181",
          "transactionHash": "0xdbc13a15cc0a9cec75e3c08dcfacba9c8af7165ca8225203d20a5bb2ddc69455",
          "transactionIndex": "0x0",
          "logIndex": "0x0",
          "removed": false
        },
        {
          "address": "0xf339f6d7860d7741bad1b759a1fd0a261cad572e",
          "topics": [
            "0xf8e1a15aba9398e019f0b49df1a4fde98ee17ae345cb5f6b5e2c27f5033e8ce7"
          ],
          "data": "0x0000000000000000000000000000000000000000000000000000000000000000",
          "blockHash": "0xe941775e6dde66a5b1fa04f87e30270b6baf782b48c4402f6db044a4c97b8745",
          "blockNumber": "0x13dc181",
          "transactionHash": "0xdbc13a15cc0a9cec75e3c08dcfacba9c8af7165ca8225203d20a5bb2ddc69455",
          "transactionIndex": "0x0",
          "logIndex": "0x1",
          "removed": false
        },
        {
          "address": "0x0000000000000000000000000000000000001010",
          "topics": [
            "0x4dfe1bbbcf077ddc3e01291eea2d5c70c2b422b415d95645b9adcfd678cb1d63",
            "0x0000000000000000000000000000000000000000000000000000000000001010",
            "0x000000000000000000000000ed1ccd8134e69bfd8275e284cb4cfc0a321cd525",
            "0x0000000000000000000000006dc2dd54f24979ec26212794c71afefed722280c"
          ],
          "data": "0x0000000000000000000000000000000000000000000000000031f26cf9df86900000000000000000000000000000000000000000000000000c4aa1e9dba2cab500000000000000000000000000000000000000000000070734c7e0ea53fd3d3b0000000000000000000000000000000000000000000000000c18af7ce1c3442500000000000000000000000000000000000000000000070734f9d3574ddcc3cb",
          "blockHash": "0xe941775e6dde66a5b1fa04f87e30270b6baf782b48c4402f6db044a4c97b8745",
          "blockNumber": "0x13dc181",
          "transactionHash": "0xdbc13a15cc0a9cec75e3c08dcfacba9c8af7165ca8225203d20a5bb2ddc69455",
          "transactionIndex": "0x0",
          "logIndex": "0x2",
          "removed": false
        }
      ],
      "logsBloom": "0x0000000000000000000000000000000000000000000000000000000000000000000000000000000000000000000080000040800000000000000000000400000000000000000000000000000800000080000000000000000000010008000000000000000002000000000000000000080000000000000000008000001000000002000000000000000000000000004000400000000000000000000000002000000020000000000000000000000000000000200000000000000000000000000000c000000002000000000001000000000000002000004000000000100000000020000000000020000000200020000000000000000000000000000000000000100000",
      "type": "0x2",
      "transactionHash": "0xdbc13a15cc0a9cec75e3c08dcfacba9c8af7165ca8225203d20a5bb2ddc69455",
      "transactionIndex": "0x0",
      "blockHash": "0xe941775e6dde66a5b1fa04f87e30270b6baf782b48c4402f6db044a4c97b8745",
      "blockNumber": "0x13dc181",
      "gasUsed": "0x2ef50",
      "effectiveGasPrice": "0x1104cf1334",
      "from": "0xed1ccd8134e69bfd8275e284cb4cfc0a321cd525",
      "to": "0xf4d6a4610095f29c7303305a7d2a031af0cef835",
      "contractAddress": null
    }
  ],
  "libraries": [],
  "pending": [],
  "returns": {},
  "timestamp": 1745443865,
  "chain": 80002,
  "commit": null
}